{
  "transactions": [
    {
      "hash": "0xbd3833db6c5c8b7343b95de35048c988026dfe8ae8e2240f24fad3cd8a1bf7e6",
      "transactionType": "CALL",
      "contractName": "SiloIncentivesControllerCLDeployer",
      "contractAddress": "0xe588ea58802968abefade5b948d650aaa778e5e5",
      "function": "createIncentivesControllerCL(address,address)",
      "arguments": [
        "0x980AdDAEC01E69E55d62bA105C6045D92B323745",
        "0x78445e53151b523F64d70C929ED602B8F75014c8"
      ],
      "transaction": {
        "from": "0xaad2f138eb20fb60c34ac70624339ccbac2320fa",
        "to": "0xe588ea58802968abefade5b948d650aaa778e5e5",
        "gas": "0x7c3f4",
        "value": "0x0",
        "input": "0xb141b8d9000000000000000000000000980addaec01e69e55d62ba105c6045d92b32374500000000000000000000000078445e53151b523f64d70c929ed602b8f75014c8",
        "nonce": "0xf3",
        "chainId": "0xa4b1"
      },
      "additionalContracts": [
        {
          "transactionType": "CREATE2",
          "contractName": "SiloIncentivesControllerCL",
          "address": "0x0f53f3d9c57c6e877eb27f8edc03bd5566f6e51f",
          "initCode": "0x60c060405234801561000f575f5ffd5b5060405161054c38038061054c83398101604081905261002e916100ae565b6001600160a01b038216610055576040516348a7684f60e11b815260040160405180910390fd5b6001600160a01b03811661007c5760405163130dfd7b60e21b815260040160405180910390fd5b6001600160a01b039182166080521660a0526100df565b80516001600160a01b03811681146100a9575f5ffd5b919050565b5f5f604083850312156100bf575f5ffd5b6100c883610093565b91506100d660208401610093565b90509250929050565b60805160a05161043b6101115f395f81816048015260f801525f8181608b0152818160ce0152610199015261043b5ff3fe608060405234801561000f575f5ffd5b506004361061003f575f3560e01c8063a13659d514610043578063ab2939fb14610086578063f57a64ae146100ad575b5f5ffd5b61006a7f000000000000000000000000000000000000000000000000000000000000000081565b6040516001600160a01b03909116815260200160405180910390f35b61006a7f000000000000000000000000000000000000000000000000000000000000000081565b6100b56100b7565b005b604051633bd73ee360e21b81526001600160a01b037f0000000000000000000000000000000000000000000000000000000000000000811660048301525f917f00000000000000000000000000000000000000000000000000000000000000009091169063ef5cfb8c906024015f604051808303815f875af115801561013f573d5f5f3e3d5ffd5b505050506040513d5f823e601f3d908101601f1916820160405261016691908101906102ea565b90505f5b815181101561027857818181518110610185576101856103da565b60200260200101515f01515f0315610270577f00000000000000000000000000000000000000000000000000000000000000006001600160a01b03166359d5fc8c8383815181106101d8576101d86103da565b6020026020010151604001518484815181106101f6576101f66103da565b6020908102919091010151516040516001600160e01b031960e085901b1681526001600160a01b03909216600483015260248201526044016020604051808303815f875af115801561024a573d5f5f3e3d5ffd5b505050506040513d601f19601f8201168201806040525081019061026e91906103ee565b505b60010161016a565b5050565b634e487b7160e01b5f52604160045260245ffd5b6040516060810167ffffffffffffffff811182821017156102b3576102b361027c565b60405290565b604051601f8201601f1916810167ffffffffffffffff811182821017156102e2576102e261027c565b604052919050565b5f602082840312156102fa575f5ffd5b815167ffffffffffffffff811115610310575f5ffd5b8201601f81018413610320575f5ffd5b805167ffffffffffffffff81111561033a5761033a61027c565b61034960208260051b016102b9565b8082825260208201915060206060840285010192508683111561036a575f5ffd5b6020840193505b828410156103d05760608488031215610388575f5ffd5b610390610290565b845181526020808601519082015260408501516001600160a01b03811681146103b7575f5ffd5b6040820152825260609390930192602090910190610371565b9695505050505050565b634e487b7160e01b5f52603260045260245ffd5b5f602082840312156103fe575f5ffd5b505191905056fea26469706673582212209347dbccacd080208e2c3b4329c49f9b1c4d03a573efd64ac212851e7a12d95a64736f6c634300081c0033000000000000000000000000952d19d315f18614ac506581d73c23531d6f5c3b00000000000000000000000078c4b78687d609d2597d4c4307ea395cf66681ae"
        }
      ],
      "isFixedGasLimit": false
    },
    {
      "hash": "0x29518117b50312350ebe6dca9d9a2e2ec98a2312fddc30b4d603d6b5fc73fcd0",
      "transactionType": "CALL",
      "contractName": "VaultIncentivesModule",
      "contractAddress": "0xdc90a35d54a7d739efb411cd291b6c30c2a08b28",
      "function": "submitIncentivesClaimingLogic(address,address)",
      "arguments": [
        "0x78445e53151b523F64d70C929ED602B8F75014c8",
        "0x0f53F3D9c57c6E877Eb27f8EDC03BD5566f6E51f"
      ],
      "transaction": {
        "from": "0xaad2f138eb20fb60c34ac70624339ccbac2320fa",
        "to": "0xdc90a35d54a7d739efb411cd291b6c30c2a08b28",
        "gas": "0x17568",
        "value": "0x0",
        "input": "0x40d486a100000000000000000000000078445e53151b523f64d70c929ed602b8f75014c80000000000000000000000000f53f3d9c57c6e877eb27f8edc03bd5566f6e51f",
        "nonce": "0xf4",
        "chainId": "0xa4b1"
      },
      "additionalContracts": [],
      "isFixedGasLimit": false
    },
    {
      "hash": "0xf424da3440fd45c21f728f73b0f65dbfb971d91d73919d342afa6867cbf5af88",
      "transactionType": "CALL",
      "contractName": "VaultIncentivesModule",
      "contractAddress": "0xdc90a35d54a7d739efb411cd291b6c30c2a08b28",
      "function": "acceptIncentivesClaimingLogic(address,address)",
      "arguments": [
        "0x78445e53151b523F64d70C929ED602B8F75014c8",
        "0x0f53F3D9c57c6E877Eb27f8EDC03BD5566f6E51f"
      ],
      "transaction": {
        "from": "0xaad2f138eb20fb60c34ac70624339ccbac2320fa",
        "to": "0xdc90a35d54a7d739efb411cd291b6c30c2a08b28",
        "gas": "0x39778",
        "value": "0x0",
        "input": "0x88a40ff100000000000000000000000078445e53151b523f64d70c929ed602b8f75014c80000000000000000000000000f53f3d9c57c6e877eb27f8edc03bd5566f6e51f",
        "nonce": "0xf5",
        "chainId": "0xa4b1"
      },
      "additionalContracts": [],
      "isFixedGasLimit": false
    }
  ],
  "receipts": [
    {
      "status": "0x1",
      "cumulativeGasUsed": "0x90415",
      "logs": [
        {
          "address": "0x6f3251e694285e0d85e19e4c90637a8f3e4f395f",
          "topics": [
            "0x0d91d4738bd0eb7a2895427da0d991cd7384daa986222af6464bcae5c2d3e536"
          ],
          "data": "0x0000000000000000000000000f53f3d9c57c6e877eb27f8edc03bd5566f6e51f",
          "blockHash": "0x633d485d82d3372ff027423b2f168a509700d29de9307e55687daf7339919d37",
          "blockNumber": "0x1a4388f9",
          "blockTimestamp": "0x69b1404b",
          "transactionHash": "0xbd3833db6c5c8b7343b95de35048c988026dfe8ae8e2240f24fad3cd8a1bf7e6",
          "transactionIndex": "0x3",
          "logIndex": "0x5",
          "removed": false
        }
      ],
      "logsBloom": "0x00000000000000000000000000000000000000000000000000000000000000000000000000002000000000000000000000000000000000000000000000000000000000000000000000000000000000000000000000000020000000000000000000000000008000000000000000000000000040000000000000000000000000000000000000000000000000000000000000000000000000102000000000000000000000000000000000000000000000000000000000000000000000000000000000000000000000000000000000000000000000000000000000000000000000000000000000000000000000000000000000000000000000000000000000000000",
      "type": "0x2",
      "transactionHash": "0xbd3833db6c5c8b7343b95de35048c988026dfe8ae8e2240f24fad3cd8a1bf7e6",
      "transactionIndex": "0x3",
      "blockHash": "0x633d485d82d3372ff027423b2f168a509700d29de9307e55687daf7339919d37",
      "blockNumber": "0x1a4388f9",
      "gasUsed": "0x5d7c7",
      "effectiveGasPrice": "0x1312d00",
      "from": "0xaad2f138eb20fb60c34ac70624339ccbac2320fa",
      "to": "0xe588ea58802968abefade5b948d650aaa778e5e5",
      "contractAddress": null,
      "gasUsedForL1": "0x236",
      "l1BlockNumber": "0x177e0d6",
      "timeboosted": false
    },
    {
      "status": "0x1",
      "cumulativeGasUsed": "0xe8ed6",
      "logs": [
        {
          "address": "0xdc90a35d54a7d739efb411cd291b6c30c2a08b28",
          "topics": [
            "0x016abb6372623f4d6f981cf15732955baf8d8c942a1aaac4dc413af5e7c8b02a",
            "0x00000000000000000000000078445e53151b523f64d70c929ed602b8f75014c8"
          ],
          "data": "0x0000000000000000000000000f53f3d9c57c6e877eb27f8edc03bd5566f6e51f",
          "blockHash": "0xfaecef6056f1c1fbe2e8cc0390e32bd6588302a7c73ffb7de577aa3390ccebb7",
          "blockNumber": "0x1a4388fc",
          "blockTimestamp": "0x69b1404c",
          "transactionHash": "0x29518117b50312350ebe6dca9d9a2e2ec98a2312fddc30b4d603d6b5fc73fcd0",
          "transactionIndex": "0x6",
          "logIndex": "0xa",
          "removed": false
        }
      ],
      "logsBloom": "0x00000000000000000000000000000000000000000000000000000000000000000008000000000000000000000000000000000000000100000000000000000000000000000000000000000000000000000000000000000000000000000000000000000000000000000000000000000000000000000000000000000000000000000000000000000000000800000000100000001000000000000000000000000000000000000000000000000000000000000000000000000000000000000000000000000000000000000000000000000000000000000000000000000000000000008800000000000000004000000001000000000000000000000000000000000000",
      "type": "0x2",
      "transactionHash": "0x29518117b50312350ebe6dca9d9a2e2ec98a2312fddc30b4d603d6b5fc73fcd0",
      "transactionIndex": "0x6",
      "blockHash": "0xfaecef6056f1c1fbe2e8cc0390e32bd6588302a7c73ffb7de577aa3390ccebb7",
      "blockNumber": "0x1a4388fc",
      "gasUsed": "0x11b3f",
      "effectiveGasPrice": "0x1334fe0",
      "from": "0xaad2f138eb20fb60c34ac70624339ccbac2320fa",
      "to": "0xdc90a35d54a7d739efb411cd291b6c30c2a08b28",
      "contractAddress": null,
      "gasUsedForL1": "0x232",
      "l1BlockNumber": "0x177e0d6",
      "timeboosted": false
    },
    {
      "status": "0x1",
      "cumulativeGasUsed": "0x276e7",
      "logs": [
        {
          "address": "0xdc90a35d54a7d739efb411cd291b6c30c2a08b28",
          "topics": [
            "0xd14928afa5bf68ec45f87228c95b2b5c87c4d4b2f70ecb2aad7752b6f31cb031",
            "0x00000000000000000000000078445e53151b523f64d70c929ed602b8f75014c8"
          ],
          "data": "0x0000000000000000000000000f53f3d9c57c6e877eb27f8edc03bd5566f6e51f",
          "blockHash": "0xa8597c1003838dd8ba39185ff0912cb98b49125393767fec909e78f753972369",
          "blockNumber": "0x1a4388ff",
          "blockTimestamp": "0x69b1404c",
          "transactionHash": "0xf424da3440fd45c21f728f73b0f65dbfb971d91d73919d342afa6867cbf5af88",
          "transactionIndex": "0x1",
          "logIndex": "0x0",
          "removed": false
        }
      ],
      "logsBloom": "0x00000000000000000000000000000000000000000000000000000000000000400008000000000000000000000000000000000000000000002000000000000000000000000000000000000000000000000000000000000000000000000000000000000000000000000000000000000000000000000000000000000000000000000200000000000000000000000000100000001000000000000000000000000000000000000000000000000000000000000000000000000000000000000000000000000000000000000000000000000000000000000000000000000000000000000800000000000000004000000001000000000000000000000000000000000000",
      "type": "0x2",
      "transactionHash": "0xf424da3440fd45c21f728f73b0f65dbfb971d91d73919d342afa6867cbf5af88",
      "transactionIndex": "0x1",
      "blockHash": "0xa8597c1003838dd8ba39185ff0912cb98b49125393767fec909e78f753972369",
      "blockNumber": "0x1a4388ff",
      "gasUsed": "0x276e7",
      "effectiveGasPrice": "0x1324e10",
      "from": "0xaad2f138eb20fb60c34ac70624339ccbac2320fa",
      "to": "0xdc90a35d54a7d739efb411cd291b6c30c2a08b28",
      "contractAddress": null,
      "gasUsedForL1": "0x234",
      "l1BlockNumber": "0x177e0d6",
      "timeboosted": false
    }
  ],
  "libraries": [],
  "pending": [],
  "returns": {},
  "timestamp": 1773224013164,
  "chain": 42161,
  "commit": "b0358ea42"
}