{
  "transactions": [
    {
      "hash": "0x91448cf9867abc737649295517a56ad1bdef21ff0305eb7c83d66a26eedd39f4",
      "transactionType": "CALL",
      "contractName": null,
      "contractAddress": "0x30d3e6873118147ba84172490f35dbab002fa230",
      "function": "register(string,address)",
      "arguments": [
        "SiloFactory",
        "0xe5b39b0b2173caA82BaEa368952c6183cA2DA3Ac"
      ],
      "transaction": {
        "from": "0xaad2f138eb20fb60c34ac70624339ccbac2320fa",
        "to": "0x30d3e6873118147ba84172490f35dbab002fa230",
        "gas": "0xfd3d",
        "value": "0x0",
        "input": "0x1e59c5290000000000000000000000000000000000000000000000000000000000000040000000000000000000000000e5b39b0b2173caa82baea368952c6183ca2da3ac000000000000000000000000000000000000000000000000000000000000000b53696c6f466163746f7279000000000000000000000000000000000000000000",
        "nonce": "0x20",
        "chainId": "0x1388"
      },
      "additionalContracts": [],
      "isFixedGasLimit": false
    },
    {
      "hash": "0x130b334dff52fa9807e16358832e6fb27c283069b6642f45538d6f89e9297578",
      "transactionType": "CALL",
      "contractName": null,
      "contractAddress": "0x30d3e6873118147ba84172490f35dbab002fa230",
      "function": "register(string,address)",
      "arguments": [
        "LiquidationHelper_ODOS",
        "0x34490CBc071b9A15440179299CF10bd82F2b079B"
      ],
      "transaction": {
        "from": "0xaad2f138eb20fb60c34ac70624339ccbac2320fa",
        "to": "0x30d3e6873118147ba84172490f35dbab002fa230",
        "gas": "0xfded",
        "value": "0x0",
        "input": "0x1e59c529000000000000000000000000000000000000000000000000000000000000004000000000000000000000000034490cbc071b9a15440179299cf10bd82f2b079b00000000000000000000000000000000000000000000000000000000000000164c69717569646174696f6e48656c7065725f4f444f5300000000000000000000",
        "nonce": "0x21",
        "chainId": "0x1388"
      },
      "additionalContracts": [],
      "isFixedGasLimit": false
    },
    {
      "hash": "0xef25a2cc0de1f50e6a9b42cd0b2b204139bbdb605a123c547916644fa85e20c9",
      "transactionType": "CALL",
      "contractName": null,
      "contractAddress": "0x30d3e6873118147ba84172490f35dbab002fa230",
      "function": "register(string,address)",
      "arguments": [
        "ManualLiquidationHelper",
        "0x1C7861978D11E9fd13257607d3FCf7bF3478f6EB"
      ],
      "transaction": {
        "from": "0xaad2f138eb20fb60c34ac70624339ccbac2320fa",
        "to": "0x30d3e6873118147ba84172490f35dbab002fa230",
        "gas": "0xfdfc",
        "value": "0x0",
        "input": "0x1e59c52900000000000000000000000000000000000000000000000000000000000000400000000000000000000000001c7861978d11e9fd13257607d3fcf7bf3478f6eb00000000000000000000000000000000000000000000000000000000000000174d616e75616c4c69717569646174696f6e48656c706572000000000000000000",
        "nonce": "0x22",
        "chainId": "0x1388"
      },
      "additionalContracts": [],
      "isFixedGasLimit": false
    },
    {
      "hash": "0xe0cb79acd591eb88ef05dcea5b678f706cecaa87e0c55d2e5300e09163e39720",
      "transactionType": "CALL",
      "contractName": null,
      "contractAddress": "0x30d3e6873118147ba84172490f35dbab002fa230",
      "function": "register(string,address)",
      "arguments": [
        "SiloLens",
        "0x45B034fe70Bb1651a3FFc3bf11Ee4920984b9793"
      ],
      "transaction": {
        "from": "0xaad2f138eb20fb60c34ac70624339ccbac2320fa",
        "to": "0x30d3e6873118147ba84172490f35dbab002fa230",
        "gas": "0xfd0e",
        "value": "0x0",
        "input": "0x1e59c529000000000000000000000000000000000000000000000000000000000000004000000000000000000000000045b034fe70bb1651a3ffc3bf11ee4920984b9793000000000000000000000000000000000000000000000000000000000000000853696c6f4c656e73000000000000000000000000000000000000000000000000",
        "nonce": "0x23",
        "chainId": "0x1388"
      },
      "additionalContracts": [],
      "isFixedGasLimit": false
    },
    {
      "hash": "0x34e9a7f86a3a9a4831a8965d111b15e1e64439ae89040d488b1ffa52efaa51c9",
      "transactionType": "CALL",
      "contractName": null,
      "contractAddress": "0x30d3e6873118147ba84172490f35dbab002fa230",
      "function": "register(string,address)",
      "arguments": [
        "SiloLeverageRouterUsingSilo",
        "0xfdA5f0b51910C3D9Ac654BbA13b722DE30b45a39"
      ],
      "transaction": {
        "from": "0xaad2f138eb20fb60c34ac70624339ccbac2320fa",
        "to": "0x30d3e6873118147ba84172490f35dbab002fa230",
        "gas": "0xfe3b",
        "value": "0x0",
        "input": "0x1e59c5290000000000000000000000000000000000000000000000000000000000000040000000000000000000000000fda5f0b51910c3d9ac654bba13b722de30b45a39000000000000000000000000000000000000000000000000000000000000001b53696c6f4c65766572616765526f757465725573696e6753696c6f0000000000",
        "nonce": "0x24",
        "chainId": "0x1388"
      },
      "additionalContracts": [],
      "isFixedGasLimit": false
    }
  ],
  "receipts": [
    {
      "status": "0x1",
      "cumulativeGasUsed": "0x17623",
      "logs": [
        {
          "address": "0x30d3e6873118147ba84172490f35dbab002fa230",
          "topics": [
            "0x5327935b8796b9614e833d16c9e90ccb2b33e41e5181f8af0308fba0373c1caf",
            "0x000000000000000000000000e5b39b0b2173caa82baea368952c6183ca2da3ac"
          ],
          "data": "0x0000000000000000000000000000000000000000000000000000000000000020000000000000000000000000000000000000000000000000000000000000000b53696c6f466163746f7279000000000000000000000000000000000000000000",
          "blockHash": "0x222fa8278bf3447aeccdc9e49eb53cd2a3c793a891aac258567e13fbe8d4eb8b",
          "blockNumber": "0x5a3384f",
          "blockTimestamp": "0x69ef62a6",
          "transactionHash": "0x91448cf9867abc737649295517a56ad1bdef21ff0305eb7c83d66a26eedd39f4",
          "transactionIndex": "0x1",
          "logIndex": "0x0",
          "removed": false
        }
      ],
      "logsBloom": "0x00000000000000000000000000000000000000000000000000000000000000000000000000000000200000000000000000000000000000000000000000000000000000000000000000000000000000000400000000000000000000000000000000000000000080000000000000000000000000000002000000000000000000000000000000000000000000000000000000000000000000000000000000080000000000000000000000000000000000000000000008000000002000000000000000000000000000000000021000000000000000000000000000000000000000000000000000000000000000000000000000000000000000000000000000000000",
      "type": "0x2",
      "transactionHash": "0x91448cf9867abc737649295517a56ad1bdef21ff0305eb7c83d66a26eedd39f4",
      "transactionIndex": "0x1",
      "blockHash": "0x222fa8278bf3447aeccdc9e49eb53cd2a3c793a891aac258567e13fbe8d4eb8b",
      "blockNumber": "0x5a3384f",
      "gasUsed": "0xc148",
      "effectiveGasPrice": "0xba44ab640",
      "blobGasUsed": "0xa0f0",
      "from": "0xaad2f138eb20fb60c34ac70624339ccbac2320fa",
      "to": "0x30d3e6873118147ba84172490f35dbab002fa230",
      "contractAddress": null,
      "daFootprintGasScalar": "0x190",
      "l1BaseFeeScalar": "0x2943b",
      "l1BlobBaseFee": "0x624a06b43dc90091",
      "l1BlobBaseFeeScalar": "0x0",
      "l1Fee": "0x7301b632a858b",
      "l1GasPrice": "0x76d66d3f",
      "l1GasUsed": "0x67c",
      "operatorFeeConstant": "0x0",
      "operatorFeeScalar": "0x5f5e100",
      "tokenRatio": "0xe1f"
    },
    {
      "status": "0x1",
      "cumulativeGasUsed": "0x176b6",
      "logs": [
        {
          "address": "0x30d3e6873118147ba84172490f35dbab002fa230",
          "topics": [
            "0x5327935b8796b9614e833d16c9e90ccb2b33e41e5181f8af0308fba0373c1caf",
            "0x00000000000000000000000034490cbc071b9a15440179299cf10bd82f2b079b"
          ],
          "data": "0x000000000000000000000000000000000000000000000000000000000000002000000000000000000000000000000000000000000000000000000000000000164c69717569646174696f6e48656c7065725f4f444f5300000000000000000000",
          "blockHash": "0x79eddd73eaa84cc6c50904063f0f0b1ca72a41a0f045d0a7f8ef0785d3e20499",
          "blockNumber": "0x5a33853",
          "blockTimestamp": "0x69ef62ae",
          "transactionHash": "0x130b334dff52fa9807e16358832e6fb27c283069b6642f45538d6f89e9297578",
          "transactionIndex": "0x1",
          "logIndex": "0x0",
          "removed": false
        }
      ],
      "logsBloom": "0x00000000000000000000000000000000000000000000000000000000000000000000010000000000000000000000000000000000000000000000000000000000000000000000000000000000000000000400000000000000000000000000000000000000000080000000000000000000000000000000000000000000000000000000000000000000000000000000000000000000000000000000000000080000000000000000000000000000000000000000000000000000002000000000000000000000000008000000021000000000000000000000000000000000000000000000000000000000000000000000000000000000000000000000000000000800",
      "type": "0x2",
      "transactionHash": "0x130b334dff52fa9807e16358832e6fb27c283069b6642f45538d6f89e9297578",
      "transactionIndex": "0x1",
      "blockHash": "0x79eddd73eaa84cc6c50904063f0f0b1ca72a41a0f045d0a7f8ef0785d3e20499",
      "blockNumber": "0x5a33853",
      "gasUsed": "0xc1cf",
      "effectiveGasPrice": "0xba44ab640",
      "blobGasUsed": "0xad70",
      "from": "0xaad2f138eb20fb60c34ac70624339ccbac2320fa",
      "to": "0x30d3e6873118147ba84172490f35dbab002fa230",
      "contractAddress": null,
      "daFootprintGasScalar": "0x190",
      "l1BaseFeeScalar": "0x2943b",
      "l1BlobBaseFee": "0x6326837ce80c619b",
      "l1BlobBaseFeeScalar": "0x0",
      "l1Fee": "0x769c696a6e1f4",
      "l1GasPrice": "0x72462193",
      "l1GasUsed": "0x6f5",
      "operatorFeeConstant": "0x0",
      "operatorFeeScalar": "0x5f5e100",
      "tokenRatio": "0xe1f"
    },
    {
      "status": "0x1",
      "cumulativeGasUsed": "0x176b6",
      "logs": [
        {
          "address": "0x30d3e6873118147ba84172490f35dbab002fa230",
          "topics": [
            "0x5327935b8796b9614e833d16c9e90ccb2b33e41e5181f8af0308fba0373c1caf",
            "0x0000000000000000000000001c7861978d11e9fd13257607d3fcf7bf3478f6eb"
          ],
          "data": "0x000000000000000000000000000000000000000000000000000000000000002000000000000000000000000000000000000000000000000000000000000000174d616e75616c4c69717569646174696f6e48656c706572000000000000000000",
          "blockHash": "0x6b86a6b763ba25ad4e440a2b41aaf6f709e5e8d76cad54171c34a2ad23893f1e",
          "blockNumber": "0x5a33858",
          "blockTimestamp": "0x69ef62b8",
          "transactionHash": "0xef25a2cc0de1f50e6a9b42cd0b2b204139bbdb605a123c547916644fa85e20c9",
          "transactionIndex": "0x1",
          "logIndex": "0x0",
          "removed": false
        }
      ],
      "logsBloom": "0x00000000000000000000000000000000000000000000000000000000000000000000000000000000000000000000000000000000000000000000000000000000000000000000000000000000000000000400000000000000000000000000000000000000000080000000000000000000000000000020000000000000000000000000000000000000000000000000000000000000000000000000000000080000000000000000000000000000000000000000000000000000002000000000000000000000000000000080021000000000000000000000000000000000000000000000000000000000000000010000000000000000000000000000000000000000",
      "type": "0x2",
      "transactionHash": "0xef25a2cc0de1f50e6a9b42cd0b2b204139bbdb605a123c547916644fa85e20c9",
      "transactionIndex": "0x1",
      "blockHash": "0x6b86a6b763ba25ad4e440a2b41aaf6f709e5e8d76cad54171c34a2ad23893f1e",
      "blockNumber": "0x5a33858",
      "gasUsed": "0xc1db",
      "effectiveGasPrice": "0xba44ab640",
      "blobGasUsed": "0xaf00",
      "from": "0xaad2f138eb20fb60c34ac70624339ccbac2320fa",
      "to": "0x30d3e6873118147ba84172490f35dbab002fa230",
      "contractAddress": null,
      "daFootprintGasScalar": "0x190",
      "l1BaseFeeScalar": "0x2943b",
      "l1BlobBaseFee": "0x468dc9006b7e4ed0",
      "l1BlobBaseFeeScalar": "0x0",
      "l1Fee": "0x72ae4686fd53c",
      "l1GasPrice": "0x6da9d8c7",
      "l1GasUsed": "0x702",
      "operatorFeeConstant": "0x0",
      "operatorFeeScalar": "0x5f5e100",
      "tokenRatio": "0xe1f"
    },
    {
      "status": "0x1",
      "cumulativeGasUsed": "0x3c536",
      "logs": [
        {
          "address": "0x30d3e6873118147ba84172490f35dbab002fa230",
          "topics": [
            "0x5327935b8796b9614e833d16c9e90ccb2b33e41e5181f8af0308fba0373c1caf",
            "0x00000000000000000000000045b034fe70bb1651a3ffc3bf11ee4920984b9793"
          ],
          "data": "0x0000000000000000000000000000000000000000000000000000000000000020000000000000000000000000000000000000000000000000000000000000000853696c6f4c656e73000000000000000000000000000000000000000000000000",
          "blockHash": "0x19082be19a3e8bcacaea5bab28aff821292e0d5514215b3476a8a6b21bc14100",
          "blockNumber": "0x5a3385c",
          "blockTimestamp": "0x69ef62c0",
          "transactionHash": "0xe0cb79acd591eb88ef05dcea5b678f706cecaa87e0c55d2e5300e09163e39720",
          "transactionIndex": "0x2",
          "logIndex": "0x3",
          "removed": false
        }
      ],
      "logsBloom": "0x02000000000000000000000000000000000000000000000000000000000000000000000000000000000000000000000000000000000000000000000000000000000000000000000000000000000000000400000000000000000000000000000000008000000080000000000000000000000000000000000000000000000000000000000000000000000000000000000000000000000000000000000000080000000000000000000000000000000000000000000000000000002000000000000000000000000000000000021000000000000000000000000000000000000000000000000000000000000000000000000000000000000000000000000000000010",
      "type": "0x2",
      "transactionHash": "0xe0cb79acd591eb88ef05dcea5b678f706cecaa87e0c55d2e5300e09163e39720",
      "transactionIndex": "0x2",
      "blockHash": "0x19082be19a3e8bcacaea5bab28aff821292e0d5514215b3476a8a6b21bc14100",
      "blockNumber": "0x5a3385c",
      "gasUsed": "0xc124",
      "effectiveGasPrice": "0xba44ab640",
      "blobGasUsed": "0x9dd0",
      "from": "0xaad2f138eb20fb60c34ac70624339ccbac2320fa",
      "to": "0x30d3e6873118147ba84172490f35dbab002fa230",
      "contractAddress": null,
      "daFootprintGasScalar": "0x190",
      "l1BaseFeeScalar": "0x2943b",
      "l1BlobBaseFee": "0x468dc9006b7e4ed0",
      "l1BlobBaseFeeScalar": "0x0",
      "l1Fee": "0x6790030a5ab1d",
      "l1GasPrice": "0x6da9d8c7",
      "l1GasUsed": "0x654",
      "operatorFeeConstant": "0x0",
      "operatorFeeScalar": "0x5f5e100",
      "tokenRatio": "0xe1f"
    },
    {
      "status": "0x1",
      "cumulativeGasUsed": "0xb4d1c",
      "logs": [
        {
          "address": "0x30d3e6873118147ba84172490f35dbab002fa230",
          "topics": [
            "0x5327935b8796b9614e833d16c9e90ccb2b33e41e5181f8af0308fba0373c1caf",
            "0x000000000000000000000000fda5f0b51910c3d9ac654bba13b722de30b45a39"
          ],
          "data": "0x0000000000000000000000000000000000000000000000000000000000000020000000000000000000000000000000000000000000000000000000000000001b53696c6f4c65766572616765526f757465725573696e6753696c6f0000000000",
          "blockHash": "0x0ab0056e4f23563ca2a97c51ccc29fa5a46469d5224abd4494acc37ce5e021d2",
          "blockNumber": "0x5a3385f",
          "blockTimestamp": "0x69ef62c6",
          "transactionHash": "0x34e9a7f86a3a9a4831a8965d111b15e1e64439ae89040d488b1ffa52efaa51c9",
          "transactionIndex": "0x5",
          "logIndex": "0xe",
          "removed": false
        }
      ],
      "logsBloom": "0x00000000000000000000000001000000000000000000000000000000000000000000000000000000000000000000000000000000000000000000000000000000000000200000000000000000000000000400000000010000000000000000000000000000000080000000000000000000000000000000000000000000000000000000000000000000000000000000000000000000000000000000000000080000000000000000000000000000000000000000000000000000002000000000000000000000000000000000021000000000000000000000000000000000000000000000000000000000000000000000000000000000000000000000000000000000",
      "type": "0x2",
      "transactionHash": "0x34e9a7f86a3a9a4831a8965d111b15e1e64439ae89040d488b1ffa52efaa51c9",
      "transactionIndex": "0x5",
      "blockHash": "0x0ab0056e4f23563ca2a97c51ccc29fa5a46469d5224abd4494acc37ce5e021d2",
      "blockNumber": "0x5a3385f",
      "gasUsed": "0xc20b",
      "effectiveGasPrice": "0xba44ab640",
      "blobGasUsed": "0xb090",
      "from": "0xaad2f138eb20fb60c34ac70624339ccbac2320fa",
      "to": "0x30d3e6873118147ba84172490f35dbab002fa230",
      "contractAddress": null,
      "daFootprintGasScalar": "0x190",
      "l1BaseFeeScalar": "0x2943b",
      "l1BlobBaseFee": "0x49b323495bea6dfb",
      "l1BlobBaseFeeScalar": "0x0",
      "l1Fee": "0x74461b93765fc",
      "l1GasPrice": "0x6e5d227a",
      "l1GasUsed": "0x710",
      "operatorFeeConstant": "0x0",
      "operatorFeeScalar": "0x5f5e100",
      "tokenRatio": "0xe1f"
    }
  ],
  "libraries": [],
  "pending": [],
  "returns": {},
  "timestamp": 1777296071287,
  "chain": 5000,
  "commit": "4cdca7f52"
}